:1000000048200020810700007D0700007D070000D8
:1000100000000000000000000000000000000000E0
:100020000000000000000000000000007D0700004C
:1000300000000000000000007D0700007D070000B8
:100040007D0700007D0700007D0700007D070000A0
:100050007D0700007D0700007D0700007D07000090
:100060007D0700007D0700007D0700007D07000080
:100070007D0700007D0700007D0700007D07000070
:100080007D0700007D0700007D0700007D07000060
:100090007D0700007D0700007D0700007D07000050
:1000A0007D07000010B5064C2378002B07D1054BC7
:1000B000002B02D0044800E000BF0123237010BDD4
:1000C0000C00002000000000580B0000084B10B589
:1000D000002B03D00749084800E000BF0748036829
:1000E000002B00D110BD064B002BFBD09847F9E741
:1000F0000000000010000020580B0000580B00000A
:100100000000000070B50020084B98470500084C1F
:10011000FA218900A047074B186007492800A0472B
:10012000064B18600522064B1A6070BD3D050000A5
:10013000950900000400002040420F00000000204C
:1001400010E000E030B5084B1C68084A002580210B
:10015000490206E0002C04D05460956013680B42FD
:10016000FCD00138F6D230BD0400002010E000E0E1
:100170000C4B1B68002B10D1EFF31083002B09D11F
:1001800072B6BFF35F8F0022074B1A700132074B24
:100190001A7002E00022054B1A70024A13680133FC
:1001A0001360704728000020080000202C00002069
:1001B000084B1A68013A1A601B68002B09D1064BDC
:1001C0001B78002B05D00122044B1A70BFF35F8F00
:1001D00062B67047280000202C0000200800002094
:1001E000F0B583B001AC012565700027A7702570BC
:1001F00021000E20064EB0478022D201054B9A61A5
:100200002770657021000F20B04703B0F0BDC046D5
:10021000190200000044004100B583B001AB802208
:100220001A700A785A704A789A708A78DA701900C7
:10023000014B984703B000BD1D07000010B507280B
:1002400003D88000164B1B589F46002027E0154B13
:10025000D86824E0144B1B6A9B059B0F1348D840B9
:100260001DE0104B18691AE00E4B1B680220184065
:1002700015D00D491022CB681A42FCD0094B1B68DF
:100280005B070BD500200A4B9847064B9B681B0465
:100290001B0C584303E08020000200E0054810BD1D
:1002A000F80A0000300000200008004000127A0028
:1002B00041060000006CDC0270B50C4C236A01782A
:1002C000857842780120024092014026B3431343CF
:1002D00002002A40D2017F308343134303220A40A5
:1002E000120203490B401343236270BD0008004013
:1002F000FFFCFFFF072803D880001E4B1B589F46BA
:10030000172036E01C4A116A02230B4313620020B7
:100310002FE0194A916902230B439361002028E0E2
:10032000154A118A02230B431382002021E0124A4E
:10033000918A02230B43938200201AE00F4B196825
:1003400002220A431A601A680D4B13400A4A93842A
:1003500011001022CB681A42FCD0084A9168064B63
:10036000D96251689962126892B29A84002000E0C2
:1003700000207047180B00000008004030000020EB
:100380007FFF000030B585B0C222D2001A4B9A60C0
:100390001A4A53681E218B43536001236A46137027
:1003A0000024174DE0B26946A84701341C2CF9D14E
:1003B00003A800244470012585700470114B9847F0
:1003C0000620114B9847114B9847114B1C725C72D9
:1003D0009C72DC7201956B465C7006236A46137052
:1003E00014725472694600200A4B984700200A4B49
:1003F000984705B030BDC0460008004000400041AD
:1004000025060000B9020000F50200001D040000EE
:100410000004004041040000F9040000064A91690C
:1004200008230B4393610122044B1A7019000B78C7
:100430001342FCD17047C04600040040000C00404D
:1004400070B5060005000C78240204434B78002B9D
:1004500002D08023DB021C434B7A002B02D0802386
:100460001B031C434868012818D9431E184210D1A9
:10047000022806D90223002201325B009842FBD8F1
:1004800000E0002212023243150080235B031C436C
:1004900004E00502354380239B021C430B7A002BAA
:1004A00002D080239B031C430F4A53785BB2002B7E
:1004B000FBDB0E4B98470E4B1E700B4A53785BB21A
:1004C000002BFBDB084B9D601A0053785BB2002BBE
:1004D000FBDB054A516880235B020B401C435460E0
:1004E000044B984770BDC046000C004071010000ED
:1004F000080C0040B101000010B504000B4A53780D
:100500005BB2002BFBDB0A4B98470A4B1C70074A77
:1005100053785BB2002BFBDB044A5368802149020D
:100520000B435360044B984710BDC046000C00407D
:1005300071010000040C0040B101000070B504001E
:100540001A4A53785BB2002BFBDB194B9847194BC7
:100550001C70164A53785BB2002BFBDB134E70689D
:10056000C004C00E144B98470500124B1C707668EF
:10057000F602F60F114B1C700C4A53785BB2002B3D
:10058000FBDB0A4B9C682402240C0D4B9847002E81
:1005900007D1012C07D9210028000A4B98470500F4
:1005A00001E00134E540280070BDC046000C004069
:1005B00071010000040C00403D020000080C0040E6
:1005C000B10100009509000010B504000F4B9847D9
:1005D0000F4B1C700F4B5A881205100F59880E4A8A
:1005E0000A405A8059880D4A0A405A8019008022D0
:1005F000D2014B881342FCD106494C880202064BBB
:10060000234013434B80064B984710BD71010000F7
:10061000020C0040000C0040FFF0FFFFFFBFFFFF97
:10062000B101000010B50C7824020443024B984736
:10063000A4B2024B5C8010BDC9050000000C004054
:1006400010B50400064B9847064B1C70064B5C889F
:100650002405240F054B98472000054B984710BDF3
:1006600071010000020C0040000C0040B1010000CC
:100670003D05000030B5D378002B1ED11378802BB8
:1006800004D01B0680246402234300E00023547836
:100690000225AC430AD19478002C03D18024A40213
:1006A000234302E0C024E402234341605478013C28
:1006B000012C12D8184C23400FE041600B041B0C96
:1006C000A024E405234383620B0CD0242406234397
:1006D0008362D378002B18D01CE00C04240CA025D6
:1006E000ED052C431C4384620C0CD0252D062C43B5
:1006F0001C438462D478002C0CD15B0305D593781D
:10070000012B01D1816100E041615378013B012B54
:1007100000D8816030BDC046FFFFFBFF10B503006D
:100720000A00C1090020002904D15809C001054967
:100730008C4660441F210B401E399940024B98475C
:1007400010BDC04600440041750600007047C04619
:1007500010B5054B9847054B9847054B9847054BF7
:100760009847054B984710BD85030000E101000044
:100770004D0700004D0700004D070000FEE7C04692
:1007800010B51D4B1D4A9A4203D01D4B1A4A9A427E
:1007900004D31C4B1C4A9A4210D31EE01B4A184B30
:1007A00003339B1A9B0801339B0000221248134914
:1007B0008C58845004329A42FAD1EAE7144A114B19
:1007C00003339B1A9B0801339B0000220E48002133
:1007D0001418216004329A42FAD10E4AFF210E4BBE
:1007E0008B4393600D4A516880230B4353600C4B3D
:1007F00098470C4B9847FEE700000020580B00007C
:100800000C000020440000200C0000200400002008
:100810001000002000ED00E000000000004000415A
:10082000AD0A000099080000002803D04022034BC5
:100830009A6102E04022014B5A6170470044004136
:10084000F0B557464E464546E0B48146082580241B
:100850000E4B98460E4F0F4E48462040431E98417F
:10086000C0B2C0473220B84720239A46B361322035
:10087000B847534673616408013D002DECD1002058
:100880001CBC90469946A246F0BDC046290800000F
:100890004501000000440041F0B585B0374B984752
:1008A000374B984703A901244C7000238B7002AE8C
:1008B00033707470B37001AD2B706C70AB700C70D2
:1008C0000520304FB847347031000620B8472C70EF
:1008D00029000420B8472C4D2C4F2D4C0A20A84746
:1008E00010267E616420A847AF20A0476420A84757
:1008F000A120A0470020A047A220A0470020A04799
:10090000A420A047A820A0473F20A047AD20A04793
:100910008E20A047B020A0470B20A047B120A047C1
:100920003120A047B320A047F020A0478A20A0474D
:100930006420A0478B20A0477820A0478A20A047AA
:100940006420A047BB20A0473A20A047BE20A04774
:100950003E20A0478720A0470620A0478120A0472F
:100960009120A0478220A0475020A0478320A04785
:100970007D20A047AF20A047BE61AFE70501000082
:100980005107000019020000450100000044004129
:1009900041080000002243088B4274D303098B42B4
:1009A0005FD3030A8B4244D3030B8B4228D3030C3F
:1009B0008B420DD3FF22090212BA030C8B4202D3E1
:1009C0001212090265D0030B8B4219D300E0090A09
:1009D000C30B8B4201D3CB03C01A5241830B8B4212
:1009E00001D38B03C01A5241430B8B4201D34B03FB
:1009F000C01A5241030B8B4201D30B03C01A524160
:100A0000C30A8B4201D3CB02C01A5241830A8B42E4
:100A100001D38B02C01A5241430A8B4201D34B02CD
:100A2000C01A5241030A8B4201D30B02C01A524131
:100A3000CDD2C3098B4201D3CB01C01A52418309E5
:100A40008B4201D38B01C01A524143098B4201D31F
:100A50004B01C01A524103098B4201D30B01C01A4A
:100A60005241C3088B4201D3CB00C01A52418308C4
:100A70008B4201D38B00C01A524143088B4201D3F1
:100A80004B00C01A5241411A00D201465241104651
:100A90007047FFE701B5002000F006F802BDC04630
:100AA0000029F7D076E770477047C0460E4B70B507
:100AB00000251E000D4CE41AA410A54204D0AB0082
:100AC000F35898470135F8E700F036F8084B002551
:100AD0001E00084CE41AA410A54204D0AB00F35841
:100AE00098470135F8E770BD440B0000440B000047
:100AF000440B0000480B00004E0200004A020000B8
:100B00004A02000096020000960200006202000005
:100B100054020000680200002003000000030000EF
:100B20000003000070030000120300002E03000009
:100B3000040300003C030000F8B5C046F8BC08BC44
:100B40009E467047CD000000F8B5C046F8BC08BC12
:080B50009E467047A50000005D
:0C0B580008000000401F00000100000029
:040000030000078171
:00000001FF
